{
  "_format": "hh-sol-artifact-1",
  "contractName": "StakingPoolV2",
  "sourceName": "contracts/StakingPoolV2.sol",
  "abi": [
    {
      "inputs": [
        {
          "internalType": "contract IERC20",
          "name": "stakingAsset_",
          "type": "address"
        },
        {
          "internalType": "contract IERC20",
          "name": "rewardAsset_",
          "type": "address"
        }
      ],
      "stateMutability": "nonpayable",
      "type": "constructor"
    },
    {
      "inputs": [],
      "name": "InvaidAmount",
      "type": "error"
    },
    {
      "inputs": [
        {
          "internalType": "uint256",
          "name": "principal",
          "type": "uint256"
        }
      ],
      "name": "NotEnoughPrincipal",
      "type": "error"
    },
    {
      "inputs": [],
      "name": "NotInRound",
      "type": "error"
    },
    {
      "inputs": [
        {
          "internalType": "uint8",
          "name": "round",
          "type": "uint8"
        },
        {
          "internalType": "uint8",
          "name": "currentRound",
          "type": "uint8"
        }
      ],
      "name": "NotInitiatedRound",
      "type": "error"
    },
    {
      "inputs": [],
      "name": "OnlyAdmin",
      "type": "error"
    },
    {
      "inputs": [],
      "name": "RoundConflicted",
      "type": "error"
    },
    {
      "inputs": [],
      "name": "StakingNotInitiated",
      "type": "error"
    },
    {
      "inputs": [],
      "name": "ZeroPrincipal",
      "type": "error"
    },
    {
      "inputs": [],
      "name": "ZeroReward",
      "type": "error"
    },
    {
      "anonymous": false,
      "inputs": [
        {
          "indexed": true,
          "internalType": "address",
          "name": "owner",
          "type": "address"
        },
        {
          "indexed": true,
          "internalType": "address",
          "name": "spender",
          "type": "address"
        },
        {
          "indexed": false,
          "internalType": "uint256",
          "name": "value",
          "type": "uint256"
        }
      ],
      "name": "Approval",
      "type": "event"
    },
    {
      "anonymous": false,
      "inputs": [
        {
          "indexed": true,
          "internalType": "address",
          "name": "user",
          "type": "address"
        },
        {
          "indexed": false,
          "internalType": "uint256",
          "name": "reward",
          "type": "uint256"
        },
        {
          "indexed": false,
          "internalType": "uint256",
          "name": "rewardLeft",
          "type": "uint256"
        },
        {
          "indexed": false,
          "internalType": "uint8",
          "name": "currentRound",
          "type": "uint8"
        }
      ],
      "name": "Claim",
      "type": "event"
    },
    {
      "anonymous": false,
      "inputs": [
        {
          "indexed": true,
          "internalType": "address",
          "name": "delegator",
          "type": "address"
        },
        {
          "indexed": true,
          "internalType": "address",
          "name": "fromDelegate",
          "type": "address"
        },
        {
          "indexed": true,
          "internalType": "address",
          "name": "toDelegate",
          "type": "address"
        }
      ],
      "name": "DelegateChanged",
      "type": "event"
    },
    {
      "anonymous": false,
      "inputs": [
        {
          "indexed": true,
          "internalType": "address",
          "name": "delegate",
          "type": "address"
        },
        {
          "indexed": false,
          "internalType": "uint256",
          "name": "previousBalance",
          "type": "uint256"
        },
        {
          "indexed": false,
          "internalType": "uint256",
          "name": "newBalance",
          "type": "uint256"
        }
      ],
      "name": "DelegateVotesChanged",
      "type": "event"
    },
    {
      "anonymous": false,
      "inputs": [
        {
          "indexed": false,
          "internalType": "uint256",
          "name": "rewardPerSecond",
          "type": "uint256"
        },
        {
          "indexed": false,
          "internalType": "uint256",
          "name": "startTimestamp",
          "type": "uint256"
        },
        {
          "indexed": false,
          "internalType": "uint256",
          "name": "endTimestamp",
          "type": "uint256"
        },
        {
          "indexed": false,
          "internalType": "uint256",
          "name": "currentRound",
          "type": "uint256"
        }
      ],
      "name": "InitRound",
      "type": "event"
    },
    {
      "anonymous": false,
      "inputs": [
        {
          "indexed": false,
          "internalType": "address",
          "name": "user",
          "type": "address"
        },
        {
          "indexed": false,
          "internalType": "uint256",
          "name": "amount",
          "type": "uint256"
        },
        {
          "indexed": false,
          "internalType": "uint8",
          "name": "migrateRound",
          "type": "uint8"
        },
        {
          "indexed": false,
          "internalType": "uint8",
          "name": "currentRound",
          "type": "uint8"
        }
      ],
      "name": "Migrate",
      "type": "event"
    },
    {
      "anonymous": false,
      "inputs": [
        {
          "indexed": true,
          "internalType": "address",
          "name": "user",
          "type": "address"
        },
        {
          "indexed": false,
          "internalType": "uint256",
          "name": "amount",
          "type": "uint256"
        },
        {
          "indexed": false,
          "internalType": "uint256",
          "name": "userIndex",
          "type": "uint256"
        },
        {
          "indexed": false,
          "internalType": "uint256",
          "name": "userPrincipal",
          "type": "uint256"
        },
        {
          "indexed": false,
          "internalType": "uint8",
          "name": "currentRound",
          "type": "uint8"
        }
      ],
      "name": "Stake",
      "type": "event"
    },
    {
      "anonymous": false,
      "inputs": [
        {
          "indexed": true,
          "internalType": "address",
          "name": "from",
          "type": "address"
        },
        {
          "indexed": true,
          "internalType": "address",
          "name": "to",
          "type": "address"
        },
        {
          "indexed": false,
          "internalType": "uint256",
          "name": "value",
          "type": "uint256"
        }
      ],
      "name": "Transfer",
      "type": "event"
    },
    {
      "anonymous": false,
      "inputs": [
        {
          "indexed": true,
          "internalType": "address",
          "name": "user",
          "type": "address"
        },
        {
          "indexed": false,
          "internalType": "uint256",
          "name": "amount",
          "type": "uint256"
        },
        {
          "indexed": false,
          "internalType": "uint256",
          "name": "userIndex",
          "type": "uint256"
        },
        {
          "indexed": false,
          "internalType": "uint256",
          "name": "userPrincipal",
          "type": "uint256"
        },
        {
          "indexed": false,
          "internalType": "uint8",
          "name": "currentRound",
          "type": "uint8"
        }
      ],
      "name": "Withdraw",
      "type": "event"
    },
    {
      "inputs": [],
      "name": "DOMAIN_SEPARATOR",
      "outputs": [
        {
          "internalType": "bytes32",
          "name": "",
          "type": "bytes32"
        }
      ],
      "stateMutability": "view",
      "type": "function"
    },
    {
      "inputs": [
        {
          "internalType": "address",
          "name": "owner",
          "type": "address"
        },
        {
          "internalType": "address",
          "name": "spender",
          "type": "address"
        }
      ],
      "name": "allowance",
      "outputs": [
        {
          "internalType": "uint256",
          "name": "",
          "type": "uint256"
        }
      ],
      "stateMutability": "view",
      "type": "function"
    },
    {
      "inputs": [
        {
          "internalType": "address",
          "name": "spender",
          "type": "address"
        },
        {
          "internalType": "uint256",
          "name": "amount",
          "type": "uint256"
        }
      ],
      "name": "approve",
      "outputs": [
        {
          "internalType": "bool",
          "name": "",
          "type": "bool"
        }
      ],
      "stateMutability": "nonpayable",
      "type": "function"
    },
    {
      "inputs": [
        {
          "internalType": "address",
          "name": "account",
          "type": "address"
        }
      ],
      "name": "balanceOf",
      "outputs": [
        {
          "internalType": "uint256",
          "name": "",
          "type": "uint256"
        }
      ],
      "stateMutability": "view",
      "type": "function"
    },
    {
      "inputs": [
        {
          "internalType": "address",
          "name": "account",
          "type": "address"
        },
        {
          "internalType": "uint32",
          "name": "pos",
          "type": "uint32"
        }
      ],
      "name": "checkpoints",
      "outputs": [
        {
          "components": [
            {
              "internalType": "uint32",
              "name": "fromBlock",
              "type": "uint32"
            },
            {
              "internalType": "uint224",
              "name": "votes",
              "type": "uint224"
            }
          ],
          "internalType": "struct ERC20Votes.Checkpoint",
          "name": "",
          "type": "tuple"
        }
      ],
      "stateMutability": "view",
      "type": "function"
    },
    {
      "inputs": [
        {
          "internalType": "uint8",
          "name": "round",
          "type": "uint8"
        }
      ],
      "name": "claim",
      "outputs": [],
      "stateMutability": "nonpayable",
      "type": "function"
    },
    {
      "inputs": [],
      "name": "currentRound",
      "outputs": [
        {
          "internalType": "uint8",
          "name": "",
          "type": "uint8"
        }
      ],
      "stateMutability": "view",
      "type": "function"
    },
    {
      "inputs": [],
      "name": "decimals",
      "outputs": [
        {
          "internalType": "uint8",
          "name": "",
          "type": "uint8"
        }
      ],
      "stateMutability": "view",
      "type": "function"
    },
    {
      "inputs": [
        {
          "internalType": "address",
          "name": "spender",
          "type": "address"
        },
        {
          "internalType": "uint256",
          "name": "subtractedValue",
          "type": "uint256"
        }
      ],
      "name": "decreaseAllowance",
      "outputs": [
        {
          "internalType": "bool",
          "name": "",
          "type": "bool"
        }
      ],
      "stateMutability": "nonpayable",
      "type": "function"
    },
    {
      "inputs": [
        {
          "internalType": "address",
          "name": "delegatee",
          "type": "address"
        }
      ],
      "name": "delegate",
      "outputs": [],
      "stateMutability": "nonpayable",
      "type": "function"
    },
    {
      "inputs": [
        {
          "internalType": "address",
          "name": "delegatee",
          "type": "address"
        },
        {
          "internalType": "uint256",
          "name": "nonce",
          "type": "uint256"
        },
        {
          "internalType": "uint256",
          "name": "expiry",
          "type": "uint256"
        },
        {
          "internalType": "uint8",
          "name": "v",
          "type": "uint8"
        },
        {
          "internalType": "bytes32",
          "name": "r",
          "type": "bytes32"
        },
        {
          "internalType": "bytes32",
          "name": "s",
          "type": "bytes32"
        }
      ],
      "name": "delegateBySig",
      "outputs": [],
      "stateMutability": "nonpayable",
      "type": "function"
    },
    {
      "inputs": [
        {
          "internalType": "address",
          "name": "account",
          "type": "address"
        }
      ],
      "name": "delegates",
      "outputs": [
        {
          "internalType": "address",
          "name": "",
          "type": "address"
        }
      ],
      "stateMutability": "view",
      "type": "function"
    },
    {
      "inputs": [
        {
          "internalType": "address",
          "name": "account",
          "type": "address"
        },
        {
          "internalType": "uint256",
          "name": "amount",
          "type": "uint256"
        }
      ],
      "name": "depositFor",
      "outputs": [
        {
          "internalType": "bool",
          "name": "",
          "type": "bool"
        }
      ],
      "stateMutability": "nonpayable",
      "type": "function"
    },
    {
      "inputs": [
        {
          "internalType": "uint256",
          "name": "blockNumber",
          "type": "uint256"
        }
      ],
      "name": "getPastTotalSupply",
      "outputs": [
        {
          "internalType": "uint256",
          "name": "",
          "type": "uint256"
        }
      ],
      "stateMutability": "view",
      "type": "function"
    },
    {
      "inputs": [
        {
          "internalType": "address",
          "name": "account",
          "type": "address"
        },
        {
          "internalType": "uint256",
          "name": "blockNumber",
          "type": "uint256"
        }
      ],
      "name": "getPastVotes",
      "outputs": [
        {
          "internalType": "uint256",
          "name": "",
          "type": "uint256"
        }
      ],
      "stateMutability": "view",
      "type": "function"
    },
    {
      "inputs": [
        {
          "internalType": "uint8",
          "name": "round",
          "type": "uint8"
        }
      ],
      "name": "getPoolData",
      "outputs": [
        {
          "internalType": "uint256",
          "name": "rewardPerSecond",
          "type": "uint256"
        },
        {
          "internalType": "uint256",
          "name": "rewardIndex",
          "type": "uint256"
        },
        {
          "internalType": "uint256",
          "name": "startTimestamp",
          "type": "uint256"
        },
        {
          "internalType": "uint256",
          "name": "endTimestamp",
          "type": "uint256"
        },
        {
          "internalType": "uint256",
          "name": "totalPrincipal",
          "type": "uint256"
        },
        {
          "internalType": "uint256",
          "name": "lastUpdateTimestamp",
          "type": "uint256"
        }
      ],
      "stateMutability": "view",
      "type": "function"
    },
    {
      "inputs": [
        {
          "internalType": "uint8",
          "name": "round",
          "type": "uint8"
        }
      ],
      "name": "getRewardIndex",
      "outputs": [
        {
          "internalType": "uint256",
          "name": "",
          "type": "uint256"
        }
      ],
      "stateMutability": "view",
      "type": "function"
    },
    {
      "inputs": [
        {
          "internalType": "uint8",
          "name": "round",
          "type": "uint8"
        },
        {
          "internalType": "address",
          "name": "user",
          "type": "address"
        }
      ],
      "name": "getUserData",
      "outputs": [
        {
          "internalType": "uint256",
          "name": "userIndex",
          "type": "uint256"
        },
        {
          "internalType": "uint256",
          "name": "userReward",
          "type": "uint256"
        },
        {
          "internalType": "uint256",
          "name": "userPrincipal",
          "type": "uint256"
        }
      ],
      "stateMutability": "view",
      "type": "function"
    },
    {
      "inputs": [
        {
          "internalType": "address",
          "name": "user",
          "type": "address"
        },
        {
          "internalType": "uint8",
          "name": "round",
          "type": "uint8"
        }
      ],
      "name": "getUserReward",
      "outputs": [
        {
          "internalType": "uint256",
          "name": "",
          "type": "uint256"
        }
      ],
      "stateMutability": "view",
      "type": "function"
    },
    {
      "inputs": [
        {
          "internalType": "address",
          "name": "account",
          "type": "address"
        }
      ],
      "name": "getVotes",
      "outputs": [
        {
          "internalType": "uint256",
          "name": "",
          "type": "uint256"
        }
      ],
      "stateMutability": "view",
      "type": "function"
    },
    {
      "inputs": [
        {
          "internalType": "address",
          "name": "spender",
          "type": "address"
        },
        {
          "internalType": "uint256",
          "name": "addedValue",
          "type": "uint256"
        }
      ],
      "name": "increaseAllowance",
      "outputs": [
        {
          "internalType": "bool",
          "name": "",
          "type": "bool"
        }
      ],
      "stateMutability": "nonpayable",
      "type": "function"
    },
    {
      "inputs": [
        {
          "internalType": "uint256",
          "name": "rewardPerSecond",
          "type": "uint256"
        },
        {
          "internalType": "uint16",
          "name": "year",
          "type": "uint16"
        },
        {
          "internalType": "uint8",
          "name": "month",
          "type": "uint8"
        },
        {
          "internalType": "uint8",
          "name": "day",
          "type": "uint8"
        },
        {
          "internalType": "uint8",
          "name": "duration",
          "type": "uint8"
        }
      ],
      "name": "initNewRound",
      "outputs": [],
      "stateMutability": "nonpayable",
      "type": "function"
    },
    {
      "inputs": [
        {
          "internalType": "uint256",
          "name": "amount",
          "type": "uint256"
        },
        {
          "internalType": "uint8",
          "name": "round",
          "type": "uint8"
        }
      ],
      "name": "migrate",
      "outputs": [],
      "stateMutability": "nonpayable",
      "type": "function"
    },
    {
      "inputs": [],
      "name": "name",
      "outputs": [
        {
          "internalType": "string",
          "name": "",
          "type": "string"
        }
      ],
      "stateMutability": "view",
      "type": "function"
    },
    {
      "inputs": [
        {
          "internalType": "address",
          "name": "owner",
          "type": "address"
        }
      ],
      "name": "nonces",
      "outputs": [
        {
          "internalType": "uint256",
          "name": "",
          "type": "uint256"
        }
      ],
      "stateMutability": "view",
      "type": "function"
    },
    {
      "inputs": [
        {
          "internalType": "address",
          "name": "account",
          "type": "address"
        }
      ],
      "name": "numCheckpoints",
      "outputs": [
        {
          "internalType": "uint32",
          "name": "",
          "type": "uint32"
        }
      ],
      "stateMutability": "view",
      "type": "function"
    },
    {
      "inputs": [
        {
          "internalType": "address",
          "name": "owner",
          "type": "address"
        },
        {
          "internalType": "address",
          "name": "spender",
          "type": "address"
        },
        {
          "internalType": "uint256",
          "name": "value",
          "type": "uint256"
        },
        {
          "internalType": "uint256",
          "name": "deadline",
          "type": "uint256"
        },
        {
          "internalType": "uint8",
          "name": "v",
          "type": "uint8"
        },
        {
          "internalType": "bytes32",
          "name": "r",
          "type": "bytes32"
        },
        {
          "internalType": "bytes32",
          "name": "s",
          "type": "bytes32"
        }
      ],
      "name": "permit",
      "outputs": [],
      "stateMutability": "nonpayable",
      "type": "function"
    },
    {
      "inputs": [],
      "name": "retrieveResidue",
      "outputs": [],
      "stateMutability": "nonpayable",
      "type": "function"
    },
    {
      "inputs": [],
      "name": "rewardAsset",
      "outputs": [
        {
          "internalType": "contract IERC20",
          "name": "",
          "type": "address"
        }
      ],
      "stateMutability": "view",
      "type": "function"
    },
    {
      "inputs": [
        {
          "internalType": "uint256",
          "name": "amount",
          "type": "uint256"
        }
      ],
      "name": "stake",
      "outputs": [],
      "stateMutability": "nonpayable",
      "type": "function"
    },
    {
      "inputs": [],
      "name": "stakingAsset",
      "outputs": [
        {
          "internalType": "contract IERC20",
          "name": "",
          "type": "address"
        }
      ],
      "stateMutability": "view",
      "type": "function"
    },
    {
      "inputs": [],
      "name": "symbol",
      "outputs": [
        {
          "internalType": "string",
          "name": "",
          "type": "string"
        }
      ],
      "stateMutability": "view",
      "type": "function"
    },
    {
      "inputs": [],
      "name": "totalSupply",
      "outputs": [
        {
          "internalType": "uint256",
          "name": "",
          "type": "uint256"
        }
      ],
      "stateMutability": "view",
      "type": "function"
    },
    {
      "inputs": [
        {
          "internalType": "address",
          "name": "recipient",
          "type": "address"
        },
        {
          "internalType": "uint256",
          "name": "amount",
          "type": "uint256"
        }
      ],
      "name": "transfer",
      "outputs": [
        {
          "internalType": "bool",
          "name": "",
          "type": "bool"
        }
      ],
      "stateMutability": "nonpayable",
      "type": "function"
    },
    {
      "inputs": [
        {
          "internalType": "address",
          "name": "sender",
          "type": "address"
        },
        {
          "internalType": "address",
          "name": "recipient",
          "type": "address"
        },
        {
          "internalType": "uint256",
          "name": "amount",
          "type": "uint256"
        }
      ],
      "name": "transferFrom",
      "outputs": [
        {
          "internalType": "bool",
          "name": "",
          "type": "bool"
        }
      ],
      "stateMutability": "nonpayable",
      "type": "function"
    },
    {
      "inputs": [],
      "name": "underlying",
      "outputs": [
        {
          "internalType": "contract IERC20",
          "name": "",
          "type": "address"
        }
      ],
      "stateMutability": "view",
      "type": "function"
    },
    {
      "inputs": [
        {
          "internalType": "uint256",
          "name": "amount",
          "type": "uint256"
        },
        {
          "internalType": "uint8",
          "name": "round",
          "type": "uint8"
        }
      ],
      "name": "withdraw",
      "outputs": [],
      "stateMutability": "nonpayable",
      "type": "function"
    },
    {
      "inputs": [
        {
          "internalType": "address",
          "name": "account",
          "type": "address"
        },
        {
          "internalType": "uint256",
          "name": "amount",
          "type": "uint256"
        }
      ],
      "name": "withdrawTo",
      "outputs": [
        {
          "internalType": "bool",
          "name": "",
          "type": "bool"
        }
      ],
      "stateMutability": "nonpayable",
      "type": "function"
    }
  ],
  "bytecode": "0x6101606040527f6e71edae12b1b97f4d1f60370fef10105fa2faae0126114a169c64845d6126c9610120523480156200003757600080fd5b506040516200376b3803806200376b8339810160408190526200005a91620002ca565b81806040518060400160405280601081526020016f29ba30b5b2b222b63cb334aa37b5b2b760811b81525080604051806040016040528060018152602001603160f81b8152506040518060400160405280601081526020016f29ba30b5b2b222b63cb334aa37b5b2b760811b8152506040518060400160405280600581526020016453454c464960d81b8152508160039080519060200190620000ff92919062000207565b5080516200011590600490602084019062000207565b5050825160209384012082519284019290922060c083815260e08290524660a0818152604080517f8b73c3c69bb8fe3d512ecc4cf759cc79239f7b179b0ffacaa9a75d522b39400f818a0181905281830198909852606080820196909652608080820194909452308184015281518082039093018352909301909252815191909501209093525061010090815292901b6001600160601b0319166101405250600a80546001600160a01b03199081166001600160a01b0396871617909155600b805490911693909416929092179092556009805433909202610100600160a81b0319909216919091179055506200033e565b828054620002159062000301565b90600052602060002090601f01602090048101928262000239576000855562000284565b82601f106200025457805160ff191683800117855562000284565b8280016001018555821562000284579182015b828111156200028457825182559160200191906001019062000267565b506200029292915062000296565b5090565b5b8082111562000292576000815560010162000297565b80516001600160a01b0381168114620002c557600080fd5b919050565b60008060408385031215620002dd578182fd5b620002e883620002ad565b9150620002f860208401620002ad565b90509250929050565b600181811c908216806200031657607f821691505b602082108114156200033857634e487b7160e01b600052602260045260246000fd5b50919050565b60805160a05160c05160e05161010051610120516101405160601c6133c1620003aa6000396000818161048001528181610737015261081501526000611025015260006117e00152600061182f0152600061180a0152600061178e015260006117b701526133c16000f3fe608060405234801561001057600080fd5b50600436106102325760003560e01c806370a0823111610130578063a457c2d7116100b8578063c3cda5201161007c578063c3cda520146105ce578063d505accf146105e1578063dd62ed3e146105f4578063edab62f51461062d578063f1127ed81461064057600080fd5b8063a457c2d71461057a578063a694fc3a1461058d578063a9059cbb146105a0578063b711c5bc146105b3578063be04ffd9146105bb57600080fd5b80638e539e8c116100ff5780638e539e8c14610526578063903d42961461053957806395d4063f1461054c57806395d89b411461055f5780639ab24eb01461056757600080fd5b806370a08231146104ca5780637776768f146104f35780637ecebe00146105065780638a19c8bc1461051957600080fd5b80633644e515116101be5780634574ecff116101825780634574ecff14610429578063587cde1e1461043c5780635c19a95c146104685780636f307dc31461047b5780636fcfff45146104a257600080fd5b80633644e51514610375578063395093511461037d5780633a46b1a8146103905780633b09d3b5146103a35780634255a1c21461041457600080fd5b80631b3bd527116102055780631b3bd527146102b5578063205c28781461032757806323b872dd1461033a5780632f4f21e21461034d578063313ce5671461036057600080fd5b806306fdde0314610237578063095ea7b3146102555780630ac6702a1461027857806318160ddd146102a3575b600080fd5b61023f61067d565b60405161024c9190613190565b60405180910390f35b610268610263366004612f81565b61070f565b604051901515815260200161024c565b600b5461028b906001600160a01b031681565b6040516001600160a01b03909116815260200161024c565b6002545b60405190815260200161024c565b6102fa6102c336600461313f565b60ff166000908152600c60205260409020805460018201546002830154600384015460048501546005909501549395929491939092565b604080519687526020870195909552938501929092526060840152608083015260a082015260c00161024c565b610268610335366004612f81565b610726565b610268610348366004612edd565b61075d565b61026861035b366004612f81565b61080e565b60125b60405160ff909116815260200161024c565b6102a7610846565b61026861038b366004612f81565b610855565b6102a761039e366004612f81565b610891565b6103f96103b1366004613159565b60ff919091166000908152600c602090815260408083206001600160a01b03909416835260068401825280832054600785018352818420546008909501909252909120549092565b6040805193845260208401929092529082015260600161024c565b6104276104223660046130b8565b610904565b005b6102a761043736600461303f565b610a2a565b61028b61044a366004612e91565b6001600160a01b039081166000908152600660205260409020541690565b610427610476366004612e91565b610a4e565b61028b7f000000000000000000000000000000000000000000000000000000000000000081565b6104b56104b0366004612e91565b610a5b565b60405163ffffffff909116815260200161024c565b6102a76104d8366004612e91565b6001600160a01b031660009081526020819052604090205490565b600a5461028b906001600160a01b031681565b6102a7610514366004612e91565b610a7d565b6009546103639060ff1681565b6102a7610534366004613088565b610a9b565b61042761054736600461311d565b610af7565b61042761055a36600461313f565b610b05565b61023f610b0f565b6102a7610575366004612e91565b610b1e565b610268610588366004612f81565b610bb3565b61042761059b366004613088565b610c4c565b6102686105ae366004612f81565b610d9c565b610427610da9565b6102a76105c936600461313f565b610e80565b6104276105dc366004612faa565b610e9b565b6104276105ef366004612f18565b610fd1565b6102a7610602366004612eab565b6001600160a01b03918216600090815260016020908152604080832093909416825291909152205490565b61042761063b36600461311d565b611135565b61065361064e366004613001565b611346565b60408051825163ffffffff1681526020928301516001600160e01b0316928101929092520161024c565b60606003805461068c906132e7565b80601f01602080910402602001604051908101604052809291908181526020018280546106b8906132e7565b80156107055780601f106106da57610100808354040283529160200191610705565b820191906000526020600020905b8154815290600101906020018083116106e857829003601f168201915b5050505050905090565b600061071c3384846113d8565b5060015b92915050565b600061073233836114fc565b61071c7f00000000000000000000000000000000000000000000000000000000000000008484611506565b600061076a84848461156e565b6001600160a01b0384166000908152600160209081526040808320338452909152902054828110156107f45760405162461bcd60e51b815260206004820152602860248201527f45524332303a207472616e7366657220616d6f756e74206578636565647320616044820152676c6c6f77616e636560c01b60648201526084015b60405180910390fd5b61080185338584036113d8565b60019150505b9392505050565b600061083c7f0000000000000000000000000000000000000000000000000000000000000000333085611748565b61071c8383611780565b600061085061178a565b905090565b3360008181526001602090815260408083206001600160a01b0387168452909152812054909161071c91859061088c9086906131c3565b6113d8565b60004382106108e25760405162461bcd60e51b815260206004820152601f60248201527f4552433230566f7465733a20626c6f636b206e6f7420796574206d696e65640060448201526064016107eb565b6001600160a01b0383166000908152600760205260409020610807908361187d565b60095461010090046001600160a01b0316336001600160a01b03161461093d57604051634755657960e01b815260040160405180910390fd5b60095460ff166000908152600c602052604081209061095f868686600a611956565b905081600301548110156109865760405163d2b3b7e960e01b815260040160405180910390fd5b60095460009061099a9060ff1660016131db565b60ff81166000908152600c602052604081209192509081906109be908b8689611970565b6009805460ff191660ff8716908117909155604080518e815260208101859052908101839052606081019190915291935091507f332ab8cb2abb1a5c0619be13c533c05a84279ef1d2d78814f594f39df59122419060800160405180910390a150505050505050505050565b60ff81166000908152600c60205260408120610a4681856119cb565b949350505050565b610a583382611a86565b50565b6001600160a01b03811660009081526007602052604081205461072090611aff565b6001600160a01b038116600090815260056020526040812054610720565b6000438210610aec5760405162461bcd60e51b815260206004820152601f60248201527f4552433230566f7465733a20626c6f636b206e6f7420796574206d696e65640060448201526064016107eb565b61072060088361187d565b610b018282611b68565b5050565b610a583382611ce0565b60606004805461068c906132e7565b6001600160a01b0381166000908152600760205260408120548015610ba0576001600160a01b0383166000908152600760205260409020610b60600183613281565b81548110610b7e57634e487b7160e01b600052603260045260246000fd5b60009182526020909120015464010000000090046001600160e01b0316610ba3565b60005b6001600160e01b03169392505050565b3360009081526001602090815260408083206001600160a01b038616845290915281205482811015610c355760405162461bcd60e51b815260206004820152602560248201527f45524332303a2064656372656173656420616c6c6f77616e63652062656c6f77604482015264207a65726f60d81b60648201526084016107eb565b610c4233858584036113d8565b5060019392505050565b60095460ff166000818152600c6020526040902090610c7e576040516350f7da1560e11b815260040160405180910390fd5b4281600301541080610c935750428160020154115b15610cb157604051636a67d54960e01b815260040160405180910390fd5b81610ccf576040516315ad0dc760e21b815260040160405180910390fd5b600954610ce39060ff16335b839190611e82565b610ced338361080e565b5033600090815260088201602052604081208054849290610d0f9084906131c3565b9250508190555081816004016000828254610d2a91906131c3565b909155505033600081815260068301602090815260408083205460088601835292819020546009548251888152938401949094528282015260ff909216606082015290517f9a2358088aa909a8c4d7b59a65c916782d62ee73d14b851be57582ed69e3ccb09181900360800190a25050565b600061071c33848461156e565b60095461010090046001600160a01b0316336001600160a01b031614610de257604051634755657960e01b815260040160405180910390fd5b600954600b546040516370a0823160e01b8152306004820152610e7e9261010090046001600160a01b039081169216906370a082319060240160206040518083038186803b158015610e3357600080fd5b505afa158015610e47573d6000803e3d6000fd5b505050506040513d601f19601f82011682018060405250810190610e6b91906130a0565b600b546001600160a01b03169190611506565b565b60ff81166000908152600c6020526040812061080781611f43565b83421115610eeb5760405162461bcd60e51b815260206004820152601d60248201527f4552433230566f7465733a207369676e6174757265206578706972656400000060448201526064016107eb565b604080517fe48329057bfd03d55e49b547132e39cffd9c1820ad7b9d4c5307691425d15adf60208201526001600160a01b038816918101919091526060810186905260808101859052600090610f6590610f5d9060a00160405160208183030381529060405280519060200120611fd4565b858585612022565b9050610f708161204a565b8614610fbe5760405162461bcd60e51b815260206004820152601960248201527f4552433230566f7465733a20696e76616c6964206e6f6e63650000000000000060448201526064016107eb565b610fc88188611a86565b50505050505050565b834211156110215760405162461bcd60e51b815260206004820152601d60248201527f45524332305065726d69743a206578706972656420646561646c696e6500000060448201526064016107eb565b60007f00000000000000000000000000000000000000000000000000000000000000008888886110508c61204a565b6040805160208101969096526001600160a01b0394851690860152929091166060840152608083015260a082015260c0810186905260e00160405160208183030381529060405280519060200120905060006110ab82611fd4565b905060006110bb82878787612022565b9050896001600160a01b0316816001600160a01b03161461111e5760405162461bcd60e51b815260206004820152601e60248201527f45524332305065726d69743a20696e76616c6964207369676e6174757265000060448201526064016107eb565b6111298a8a8a6113d8565b50505050505050505050565b60095460ff9081169082161061116f576009546040516365d621ed60e01b815260ff808416600483015290911660248201526044016107eb565b60ff81166000908152600c602090815260408083203384526008810190925290912054806111b057604051630b3eb09f60e21b815260040160405180910390fd5b60006111bc8583613281565b90506111c883336119cb565b156111d7576111d73385611ce0565b80156111e7576111e78185611b68565b60095460ff166000818152600c60205260409020906112069033610cdb565b33600090815260088501602052604081208054889290611227908490613281565b90915550503360009081526008820160205260408120805488929061124d9084906131c3565b92505081905550858460040160008282546112689190613281565b925050819055508581600401600082825461128391906131c3565b9091555050336000818152600683016020908152604080832054600886018352928190205460095482518c8152938401949094528282015260ff909216606082015290517f9a2358088aa909a8c4d7b59a65c916782d62ee73d14b851be57582ed69e3ccb09181900360800190a2600954604080513381526020810189905260ff888116828401529092166060830152517f546af5173ec580ce2f8eb21d6efbe16430d69c880c6d83a5f455b9f4022843ad9181900360800190a1505050505050565b60408051808201909152600080825260208201526001600160a01b0383166000908152600760205260409020805463ffffffff841690811061139857634e487b7160e01b600052603260045260246000fd5b60009182526020918290206040805180820190915291015463ffffffff8116825264010000000090046001600160e01b0316918101919091529392505050565b6001600160a01b03831661143a5760405162461bcd60e51b8152602060048201526024808201527f45524332303a20617070726f76652066726f6d20746865207a65726f206164646044820152637265737360e01b60648201526084016107eb565b6001600160a01b03821661149b5760405162461bcd60e51b815260206004820152602260248201527f45524332303a20617070726f766520746f20746865207a65726f206164647265604482015261737360f01b60648201526084016107eb565b6001600160a01b0383811660008181526001602090815260408083209487168084529482529182902085905590518481527f8c5be1e5ebec7d5bd14f71427d1e84f3dd0314c0f7b2291e5b200ac8c7c3b925910160405180910390a3505050565b610b018282612072565b6040516001600160a01b03831660248201526044810182905261156990849063a9059cbb60e01b906064015b60408051601f198184030181529190526020810180516001600160e01b03166001600160e01b03199093169290921790915261208a565b505050565b6001600160a01b0383166115d25760405162461bcd60e51b815260206004820152602560248201527f45524332303a207472616e736665722066726f6d20746865207a65726f206164604482015264647265737360d81b60648201526084016107eb565b6001600160a01b0382166116345760405162461bcd60e51b815260206004820152602360248201527f45524332303a207472616e7366657220746f20746865207a65726f206164647260448201526265737360e81b60648201526084016107eb565b6001600160a01b038316600090815260208190526040902054818110156116ac5760405162461bcd60e51b815260206004820152602660248201527f45524332303a207472616e7366657220616d6f756e7420657863656564732062604482015265616c616e636560d01b60648201526084016107eb565b6001600160a01b038085166000908152602081905260408082208585039055918516815290812080548492906116e39084906131c3565b92505081905550826001600160a01b0316846001600160a01b03167fddf252ad1be2c89b69c2b068fc378daa952ba7f163c4a11628f55a4df523b3ef8460405161172f91815260200190565b60405180910390a361174284848461215c565b50505050565b6040516001600160a01b03808516602483015283166044820152606481018290526117429085906323b872dd60e01b90608401611532565b610b018282612167565b60007f00000000000000000000000000000000000000000000000000000000000000004614156117d957507f000000000000000000000000000000000000000000000000000000000000000090565b50604080517f00000000000000000000000000000000000000000000000000000000000000006020808301919091527f0000000000000000000000000000000000000000000000000000000000000000828401527f000000000000000000000000000000000000000000000000000000000000000060608301524660808301523060a0808401919091528351808403909101815260c0909201909252805191012090565b8154600090815b818110156118ef57600061189882846121f1565b9050848682815481106118bb57634e487b7160e01b600052603260045260246000fd5b60009182526020909120015463ffffffff1611156118db578092506118e9565b6118e68160016131c3565b91505b50611884565b81156119415784611901600184613281565b8154811061191f57634e487b7160e01b600052603260045260246000fd5b60009182526020909120015464010000000090046001600160e01b0316611944565b60005b6001600160e01b031695945050505050565b60006119678585858560008061220c565b95945050505050565b8284556002840182905560008061198d60ff841662015180613214565b61199c9062ffffff16856131c3565b6003870181905560058701859055670de0b6b3a764000060018801556002870154925090505b94509492505050565b6001600160a01b03811660009081526006830160205260408120546119f257506000610720565b6001600160a01b0382166000908152600684016020526040812054611a1685611f43565b611a209190613281565b6001600160a01b0384166000908152600886016020526040812054919250633b9aca00611a4d848461323f565b611a579190613200565b6001600160a01b0386166000908152600788016020526040902054611a7c91906131c3565b9695505050505050565b6001600160a01b038281166000818152600660208181526040808420805485845282862054949093528787166001600160a01b03198416811790915590519190951694919391928592917f3134e8a2e6d97e929a7e54011ea5485d7d196dd5f0ba4d4ef95803e8e3fc257f9190a46117428284836123cb565b600063ffffffff821115611b645760405162461bcd60e51b815260206004820152602660248201527f53616665436173743a2076616c756520646f65736e27742066697420696e203360448201526532206269747360d01b60648201526084016107eb565b5090565b60ff8082166000818152600c602052604090206009549092161015611bb1576009546040516365d621ed60e01b815260ff808516600483015290911660248201526044016107eb565b82600019811415611bd057503360009081526008820160205260409020545b336000908152600883016020526040902054811115611c19573360009081526008830160205260409081902054905163cebd519360e01b815260048101919091526024016107eb565b611c24828433611e82565b33600090815260088301602052604081208054839290611c45908490613281565b9250508190555080826004016000828254611c609190613281565b90915550611c7090503385610726565b5033600081815260068401602090815260408083205460088701835292819020546009548251878152938401949094528282015260ff909216606082015290517f66ecb22c263001ecfe4aecc5a075cfbc877869d3fab02728b0f8bfb8b08bf6d19181900360800190a250505050565b60095460ff9081169082161115611d1b576009546040516365d621ed60e01b815260ff808416600483015290911660248201526044016107eb565b60ff81166000908152600c6020526040812090611d3882856119cb565b905080611d5857604051632706c9e160e21b815260040160405180910390fd5b6001600160a01b0384166000908152600783016020526040812055611d7c82611f43565b6001600160a01b038086166000908152600685016020526040902091909155600b54611daa91168583611506565b600b546040516370a0823160e01b81523060048201526000916001600160a01b0316906370a082319060240160206040518083038186803b158015611dee57600080fd5b505afa158015611e02573d6000803e3d6000fd5b505050506040513d601f19601f82011682018060405250810190611e2691906130a0565b604080518481526020810183905260ff8716918101919091529091506001600160a01b038616907fae4ef7abdb28a08e41e77990def7c7d8d3f4133e8838005bc1a49fe137dbfcfa906060015b60405180910390a25050505050565b611e8c83826119cb565b6001600160a01b0382166000908152600785016020526040902055611eb083611f43565b6001600160a01b03821660009081526006850160205260409020819055600184015560038301544210611ee7578260030154611ee9565b425b60058401556001830154600484015460408051928352602083019190915260ff84169082015233907f7994e9f3b8680cde12b3d4f603192419ae0154049b1c5cc3157262c90ab4f9239060600160405180910390a2505050565b60008082600301544210611f5b578260030154611f5d565b425b90506000836005015482611f719190613281565b600485015490915081611f8957505050506001015490565b80611f9957505050506001015490565b84546000908290611faa908561323f565b611fb890633b9aca0061323f565b611fc29190613200565b9050808660010154611a7c91906131c3565b6000610720611fe161178a565b8360405161190160f01b6020820152602281018390526042810182905260009060620160405160208183030381529060405280519060200120905092915050565b6000806000612033878787876124f9565b91509150612040816125e3565b5095945050505050565b6001600160a01b03811660009081526005602052604090208054600181018255905b50919050565b61207c82826127e4565b611742600861293983612945565b60006120df826040518060400160405280602081526020017f5361666545524332303a206c6f772d6c6576656c2063616c6c206661696c6564815250856001600160a01b0316612ae89092919063ffffffff16565b80519091501561156957808060200190518101906120fd9190613068565b6115695760405162461bcd60e51b815260206004820152602a60248201527f5361666545524332303a204552433230206f7065726174696f6e20646964206e6044820152691bdd081cdd58d8d9595960b21b60648201526084016107eb565b611569838383612af7565b6121718282612b29565b6002546001600160e01b0310156121e35760405162461bcd60e51b815260206004820152603060248201527f4552433230566f7465733a20746f74616c20737570706c79207269736b73206f60448201526f766572666c6f77696e6720766f74657360801b60648201526084016107eb565b6117426008612c1083612945565b60006122006002848418613200565b610807908484166131c3565b60006107b25b8761ffff168161ffff1610156122685761222b81612c1c565b156122455761223e6301e28500836131c3565b9150612256565b6122536301e13380836131c3565b91505b806122608161331c565b915050612212565b612270612e45565b601f815261227d89612c1c565b1561228e57601d6020820152612296565b601c60208201525b601f60408201819052601e606083018190526080830182905260a0830181905260c0830182905260e0830182905261010083018190526101208301829052610140830152610160820152600191505b8760ff168261ffff161015612355578061230060018461325e565b61ffff16600c811061232257634e487b7160e01b600052603260045260246000fd5b60200201516123379060ff166201518061323f565b61234190846131c3565b92508161234d8161331c565b9250506122e5565b612360600188613298565b6123709060ff166201518061323f565b61237a90846131c3565b925061238b60ff8716610e1061323f565b61239590846131c3565b92506123a560ff8616603c61323f565b6123af90846131c3565b92506123be60ff8516846131c3565b9998505050505050505050565b816001600160a01b0316836001600160a01b0316141580156123ed5750600081115b15611569576001600160a01b0383161561247b576001600160a01b038316600090815260076020526040812081906124289061293985612945565b91509150846001600160a01b03167fdec2bacdd2f05b59de34da9b523dff8be42e5e38e818c82fdb0bae774387a7248383604051612470929190918252602082015260400190565b60405180910390a250505b6001600160a01b03821615611569576001600160a01b038216600090815260076020526040812081906124b190612c1085612945565b91509150836001600160a01b03167fdec2bacdd2f05b59de34da9b523dff8be42e5e38e818c82fdb0bae774387a7248383604051611e73929190918252602082015260400190565b6000807f7fffffffffffffffffffffffffffffff5d576e7357a4501ddfe92f46681b20a083111561253057506000905060036119c2565b8460ff16601b1415801561254857508460ff16601c14155b1561255957506000905060046119c2565b6040805160008082526020820180845289905260ff881692820192909252606081018690526080810185905260019060a0016020604051602081039080840390855afa1580156125ad573d6000803e3d6000fd5b5050604051601f1901519150506001600160a01b0381166125d6576000600192509250506119c2565b9660009650945050505050565b600081600481111561260557634e487b7160e01b600052602160045260246000fd5b141561260e5750565b600181600481111561263057634e487b7160e01b600052602160045260246000fd5b141561267e5760405162461bcd60e51b815260206004820152601860248201527f45434453413a20696e76616c6964207369676e6174757265000000000000000060448201526064016107eb565b60028160048111156126a057634e487b7160e01b600052602160045260246000fd5b14156126ee5760405162461bcd60e51b815260206004820152601f60248201527f45434453413a20696e76616c6964207369676e6174757265206c656e6774680060448201526064016107eb565b600381600481111561271057634e487b7160e01b600052602160045260246000fd5b14156127695760405162461bcd60e51b815260206004820152602260248201527f45434453413a20696e76616c6964207369676e6174757265202773272076616c604482015261756560f01b60648201526084016107eb565b600481600481111561278b57634e487b7160e01b600052602160045260246000fd5b1415610a585760405162461bcd60e51b815260206004820152602260248201527f45434453413a20696e76616c6964207369676e6174757265202776272076616c604482015261756560f01b60648201526084016107eb565b6001600160a01b0382166128445760405162461bcd60e51b815260206004820152602160248201527f45524332303a206275726e2066726f6d20746865207a65726f206164647265736044820152607360f81b60648201526084016107eb565b6001600160a01b038216600090815260208190526040902054818110156128b85760405162461bcd60e51b815260206004820152602260248201527f45524332303a206275726e20616d6f756e7420657863656564732062616c616e604482015261636560f01b60648201526084016107eb565b6001600160a01b03831660009081526020819052604081208383039055600280548492906128e7908490613281565b90915550506040518281526000906001600160a01b038516907fddf252ad1be2c89b69c2b068fc378daa952ba7f163c4a11628f55a4df523b3ef9060200160405180910390a36115698360008461215c565b60006108078284613281565b82546000908190801561299e578561295e600183613281565b8154811061297c57634e487b7160e01b600052603260045260246000fd5b60009182526020909120015464010000000090046001600160e01b03166129a1565b60005b6001600160e01b031692506129ba83858763ffffffff16565b9150600081118015612a06575043866129d4600184613281565b815481106129f257634e487b7160e01b600052603260045260246000fd5b60009182526020909120015463ffffffff16145b15612a7457612a1482612c7b565b86612a20600184613281565b81548110612a3e57634e487b7160e01b600052603260045260246000fd5b9060005260206000200160000160046101000a8154816001600160e01b0302191690836001600160e01b03160217905550612adf565b856040518060400160405280612a8943611aff565b63ffffffff168152602001612a9d85612c7b565b6001600160e01b0390811690915282546001810184556000938452602093849020835194909301519091166401000000000263ffffffff909316929092179101555b50935093915050565b6060610a468484600085612ce4565b6001600160a01b03838116600090815260066020526040808220548584168352912054611569929182169116836123cb565b6001600160a01b038216612b7f5760405162461bcd60e51b815260206004820152601f60248201527f45524332303a206d696e7420746f20746865207a65726f20616464726573730060448201526064016107eb565b8060026000828254612b9191906131c3565b90915550506001600160a01b03821660009081526020819052604081208054839290612bbe9084906131c3565b90915550506040518181526001600160a01b038316906000907fddf252ad1be2c89b69c2b068fc378daa952ba7f163c4a11628f55a4df523b3ef9060200160405180910390a3610b016000838361215c565b600061080782846131c3565b6000612c2960048361333e565b61ffff1615612c3a57506000919050565b612c4560648361333e565b61ffff1615612c5657506001919050565b612c626101908361333e565b61ffff1615612c7357506000919050565b506001919050565b60006001600160e01b03821115611b645760405162461bcd60e51b815260206004820152602760248201527f53616665436173743a2076616c756520646f65736e27742066697420696e20326044820152663234206269747360c81b60648201526084016107eb565b606082471015612d455760405162461bcd60e51b815260206004820152602660248201527f416464726573733a20696e73756666696369656e742062616c616e636520666f6044820152651c8818d85b1b60d21b60648201526084016107eb565b843b612d935760405162461bcd60e51b815260206004820152601d60248201527f416464726573733a2063616c6c20746f206e6f6e2d636f6e747261637400000060448201526064016107eb565b600080866001600160a01b03168587604051612daf9190613174565b60006040518083038185875af1925050503d8060008114612dec576040519150601f19603f3d011682016040523d82523d6000602084013e612df1565b606091505b5091509150612e01828286612e0c565b979650505050505050565b60608315612e1b575081610807565b825115612e2b5782518084602001fd5b8160405162461bcd60e51b81526004016107eb9190613190565b604051806101800160405280600c906020820280368337509192915050565b80356001600160a01b0381168114612e7b57600080fd5b919050565b803560ff81168114612e7b57600080fd5b600060208284031215612ea2578081fd5b61080782612e64565b60008060408385031215612ebd578081fd5b612ec683612e64565b9150612ed460208401612e64565b90509250929050565b600080600060608486031215612ef1578081fd5b612efa84612e64565b9250612f0860208501612e64565b9150604084013590509250925092565b600080600080600080600060e0888a031215612f32578283fd5b612f3b88612e64565b9650612f4960208901612e64565b95506040880135945060608801359350612f6560808901612e80565b925060a0880135915060c0880135905092959891949750929550565b60008060408385031215612f93578182fd5b612f9c83612e64565b946020939093013593505050565b60008060008060008060c08789031215612fc2578182fd5b612fcb87612e64565b95506020870135945060408701359350612fe760608801612e80565b92506080870135915060a087013590509295509295509295565b60008060408385031215613013578182fd5b61301c83612e64565b9150602083013563ffffffff81168114613034578182fd5b809150509250929050565b60008060408385031215613051578182fd5b61305a83612e64565b9150612ed460208401612e80565b600060208284031215613079578081fd5b81518015158114610807578182fd5b600060208284031215613099578081fd5b5035919050565b6000602082840312156130b1578081fd5b5051919050565b600080600080600060a086880312156130cf578081fd5b85359450602086013561ffff811681146130e7578182fd5b93506130f560408701612e80565b925061310360608701612e80565b915061311160808701612e80565b90509295509295909350565b6000806040838503121561312f578182fd5b82359150612ed460208401612e80565b600060208284031215613150578081fd5b61080782612e80565b6000806040838503121561316b578182fd5b612ec683612e80565b600082516131868184602087016132bb565b9190910192915050565b60208152600082518060208401526131af8160408501602087016132bb565b601f01601f19169190910160400192915050565b600082198211156131d6576131d661335f565b500190565b600060ff821660ff84168060ff038211156131f8576131f861335f565b019392505050565b60008261320f5761320f613375565b500490565b600062ffffff808316818516818304811182151516156132365761323661335f565b02949350505050565b60008160001904831182151516156132595761325961335f565b500290565b600061ffff838116908316818110156132795761327961335f565b039392505050565b6000828210156132935761329361335f565b500390565b600060ff821660ff8416808210156132b2576132b261335f565b90039392505050565b60005b838110156132d65781810151838201526020016132be565b838111156117425750506000910152565b600181811c908216806132fb57607f821691505b6020821081141561206c57634e487b7160e01b600052602260045260246000fd5b600061ffff808316818114156133345761333461335f565b6001019392505050565b600061ffff8084168061335357613353613375565b92169190910692915050565b634e487b7160e01b600052601160045260246000fd5b634e487b7160e01b600052601260045260246000fdfea2646970667358221220a67e79af0b8a4a1a213c58f37e4057f88b5dd8efca7517d02c13c8a98c25a0e264736f6c63430008040033",
  "linkReferences": {},
  "deployedLinkReferences": {}
}