{
  "_format": "hh-sol-artifact-1",
  "contractName": "StakingPoolV2",
  "sourceName": "contracts/StakingPoolV2.sol",
  "abi": [
    {
      "inputs": [
        {
          "internalType": "contract IERC20",
          "name": "stakingAsset_",
          "type": "address"
        },
        {
          "internalType": "contract IERC20",
          "name": "rewardAsset_",
          "type": "address"
        }
      ],
      "stateMutability": "nonpayable",
      "type": "constructor"
    },
    {
      "inputs": [],
      "name": "InvaidAmount",
      "type": "error"
    },
    {
      "inputs": [
        {
          "internalType": "uint256",
          "name": "principal",
          "type": "uint256"
        }
      ],
      "name": "NotEnoughPrincipal",
      "type": "error"
    },
    {
      "inputs": [],
      "name": "NotInRound",
      "type": "error"
    },
    {
      "inputs": [
        {
          "internalType": "uint8",
          "name": "round",
          "type": "uint8"
        },
        {
          "internalType": "uint8",
          "name": "currentRound",
          "type": "uint8"
        }
      ],
      "name": "NotInitiatedRound",
      "type": "error"
    },
    {
      "inputs": [],
      "name": "OnlyAdmin",
      "type": "error"
    },
    {
      "inputs": [],
      "name": "RoundConflicted",
      "type": "error"
    },
    {
      "inputs": [],
      "name": "StakingNotInitiated",
      "type": "error"
    },
    {
      "inputs": [],
      "name": "ZeroPrincipal",
      "type": "error"
    },
    {
      "inputs": [],
      "name": "ZeroReward",
      "type": "error"
    },
    {
      "anonymous": false,
      "inputs": [
        {
          "indexed": true,
          "internalType": "address",
          "name": "owner",
          "type": "address"
        },
        {
          "indexed": true,
          "internalType": "address",
          "name": "spender",
          "type": "address"
        },
        {
          "indexed": false,
          "internalType": "uint256",
          "name": "value",
          "type": "uint256"
        }
      ],
      "name": "Approval",
      "type": "event"
    },
    {
      "anonymous": false,
      "inputs": [
        {
          "indexed": true,
          "internalType": "address",
          "name": "user",
          "type": "address"
        },
        {
          "indexed": false,
          "internalType": "uint256",
          "name": "reward",
          "type": "uint256"
        },
        {
          "indexed": false,
          "internalType": "uint256",
          "name": "rewardLeft",
          "type": "uint256"
        },
        {
          "indexed": false,
          "internalType": "uint8",
          "name": "currentRound",
          "type": "uint8"
        }
      ],
      "name": "Claim",
      "type": "event"
    },
    {
      "anonymous": false,
      "inputs": [
        {
          "indexed": true,
          "internalType": "address",
          "name": "delegator",
          "type": "address"
        },
        {
          "indexed": true,
          "internalType": "address",
          "name": "fromDelegate",
          "type": "address"
        },
        {
          "indexed": true,
          "internalType": "address",
          "name": "toDelegate",
          "type": "address"
        }
      ],
      "name": "DelegateChanged",
      "type": "event"
    },
    {
      "anonymous": false,
      "inputs": [
        {
          "indexed": true,
          "internalType": "address",
          "name": "delegate",
          "type": "address"
        },
        {
          "indexed": false,
          "internalType": "uint256",
          "name": "previousBalance",
          "type": "uint256"
        },
        {
          "indexed": false,
          "internalType": "uint256",
          "name": "newBalance",
          "type": "uint256"
        }
      ],
      "name": "DelegateVotesChanged",
      "type": "event"
    },
    {
      "anonymous": false,
      "inputs": [
        {
          "indexed": false,
          "internalType": "uint256",
          "name": "rewardPerSecond",
          "type": "uint256"
        },
        {
          "indexed": false,
          "internalType": "uint256",
          "name": "startTimestamp",
          "type": "uint256"
        },
        {
          "indexed": false,
          "internalType": "uint256",
          "name": "endTimestamp",
          "type": "uint256"
        },
        {
          "indexed": false,
          "internalType": "uint256",
          "name": "currentRound",
          "type": "uint256"
        }
      ],
      "name": "InitRound",
      "type": "event"
    },
    {
      "anonymous": false,
      "inputs": [
        {
          "indexed": false,
          "internalType": "address",
          "name": "user",
          "type": "address"
        },
        {
          "indexed": false,
          "internalType": "uint256",
          "name": "amount",
          "type": "uint256"
        },
        {
          "indexed": false,
          "internalType": "uint8",
          "name": "migrateRound",
          "type": "uint8"
        },
        {
          "indexed": false,
          "internalType": "uint8",
          "name": "currentRound",
          "type": "uint8"
        }
      ],
      "name": "Migrate",
      "type": "event"
    },
    {
      "anonymous": false,
      "inputs": [
        {
          "indexed": true,
          "internalType": "address",
          "name": "user",
          "type": "address"
        },
        {
          "indexed": false,
          "internalType": "uint256",
          "name": "amount",
          "type": "uint256"
        },
        {
          "indexed": false,
          "internalType": "uint256",
          "name": "userIndex",
          "type": "uint256"
        },
        {
          "indexed": false,
          "internalType": "uint256",
          "name": "userPrincipal",
          "type": "uint256"
        },
        {
          "indexed": false,
          "internalType": "uint8",
          "name": "currentRound",
          "type": "uint8"
        }
      ],
      "name": "Stake",
      "type": "event"
    },
    {
      "anonymous": false,
      "inputs": [
        {
          "indexed": true,
          "internalType": "address",
          "name": "from",
          "type": "address"
        },
        {
          "indexed": true,
          "internalType": "address",
          "name": "to",
          "type": "address"
        },
        {
          "indexed": false,
          "internalType": "uint256",
          "name": "value",
          "type": "uint256"
        }
      ],
      "name": "Transfer",
      "type": "event"
    },
    {
      "anonymous": false,
      "inputs": [
        {
          "indexed": true,
          "internalType": "address",
          "name": "user",
          "type": "address"
        },
        {
          "indexed": false,
          "internalType": "uint256",
          "name": "amount",
          "type": "uint256"
        },
        {
          "indexed": false,
          "internalType": "uint256",
          "name": "userIndex",
          "type": "uint256"
        },
        {
          "indexed": false,
          "internalType": "uint256",
          "name": "userPrincipal",
          "type": "uint256"
        },
        {
          "indexed": false,
          "internalType": "uint8",
          "name": "currentRound",
          "type": "uint8"
        }
      ],
      "name": "Withdraw",
      "type": "event"
    },
    {
      "inputs": [],
      "name": "DOMAIN_SEPARATOR",
      "outputs": [
        {
          "internalType": "bytes32",
          "name": "",
          "type": "bytes32"
        }
      ],
      "stateMutability": "view",
      "type": "function"
    },
    {
      "inputs": [
        {
          "internalType": "address",
          "name": "owner",
          "type": "address"
        },
        {
          "internalType": "address",
          "name": "spender",
          "type": "address"
        }
      ],
      "name": "allowance",
      "outputs": [
        {
          "internalType": "uint256",
          "name": "",
          "type": "uint256"
        }
      ],
      "stateMutability": "view",
      "type": "function"
    },
    {
      "inputs": [
        {
          "internalType": "address",
          "name": "spender",
          "type": "address"
        },
        {
          "internalType": "uint256",
          "name": "amount",
          "type": "uint256"
        }
      ],
      "name": "approve",
      "outputs": [
        {
          "internalType": "bool",
          "name": "",
          "type": "bool"
        }
      ],
      "stateMutability": "nonpayable",
      "type": "function"
    },
    {
      "inputs": [
        {
          "internalType": "address",
          "name": "account",
          "type": "address"
        }
      ],
      "name": "balanceOf",
      "outputs": [
        {
          "internalType": "uint256",
          "name": "",
          "type": "uint256"
        }
      ],
      "stateMutability": "view",
      "type": "function"
    },
    {
      "inputs": [
        {
          "internalType": "address",
          "name": "account",
          "type": "address"
        },
        {
          "internalType": "uint32",
          "name": "pos",
          "type": "uint32"
        }
      ],
      "name": "checkpoints",
      "outputs": [
        {
          "components": [
            {
              "internalType": "uint32",
              "name": "fromBlock",
              "type": "uint32"
            },
            {
              "internalType": "uint224",
              "name": "votes",
              "type": "uint224"
            }
          ],
          "internalType": "struct ERC20Votes.Checkpoint",
          "name": "",
          "type": "tuple"
        }
      ],
      "stateMutability": "view",
      "type": "function"
    },
    {
      "inputs": [
        {
          "internalType": "uint8",
          "name": "round",
          "type": "uint8"
        }
      ],
      "name": "claim",
      "outputs": [],
      "stateMutability": "nonpayable",
      "type": "function"
    },
    {
      "inputs": [],
      "name": "currentRound",
      "outputs": [
        {
          "internalType": "uint8",
          "name": "",
          "type": "uint8"
        }
      ],
      "stateMutability": "view",
      "type": "function"
    },
    {
      "inputs": [],
      "name": "decimals",
      "outputs": [
        {
          "internalType": "uint8",
          "name": "",
          "type": "uint8"
        }
      ],
      "stateMutability": "view",
      "type": "function"
    },
    {
      "inputs": [
        {
          "internalType": "address",
          "name": "spender",
          "type": "address"
        },
        {
          "internalType": "uint256",
          "name": "subtractedValue",
          "type": "uint256"
        }
      ],
      "name": "decreaseAllowance",
      "outputs": [
        {
          "internalType": "bool",
          "name": "",
          "type": "bool"
        }
      ],
      "stateMutability": "nonpayable",
      "type": "function"
    },
    {
      "inputs": [
        {
          "internalType": "address",
          "name": "delegatee",
          "type": "address"
        }
      ],
      "name": "delegate",
      "outputs": [],
      "stateMutability": "nonpayable",
      "type": "function"
    },
    {
      "inputs": [
        {
          "internalType": "address",
          "name": "delegatee",
          "type": "address"
        },
        {
          "internalType": "uint256",
          "name": "nonce",
          "type": "uint256"
        },
        {
          "internalType": "uint256",
          "name": "expiry",
          "type": "uint256"
        },
        {
          "internalType": "uint8",
          "name": "v",
          "type": "uint8"
        },
        {
          "internalType": "bytes32",
          "name": "r",
          "type": "bytes32"
        },
        {
          "internalType": "bytes32",
          "name": "s",
          "type": "bytes32"
        }
      ],
      "name": "delegateBySig",
      "outputs": [],
      "stateMutability": "nonpayable",
      "type": "function"
    },
    {
      "inputs": [
        {
          "internalType": "address",
          "name": "account",
          "type": "address"
        }
      ],
      "name": "delegates",
      "outputs": [
        {
          "internalType": "address",
          "name": "",
          "type": "address"
        }
      ],
      "stateMutability": "view",
      "type": "function"
    },
    {
      "inputs": [
        {
          "internalType": "address",
          "name": "account",
          "type": "address"
        },
        {
          "internalType": "uint256",
          "name": "amount",
          "type": "uint256"
        }
      ],
      "name": "depositFor",
      "outputs": [
        {
          "internalType": "bool",
          "name": "",
          "type": "bool"
        }
      ],
      "stateMutability": "nonpayable",
      "type": "function"
    },
    {
      "inputs": [
        {
          "internalType": "uint256",
          "name": "blockNumber",
          "type": "uint256"
        }
      ],
      "name": "getPastTotalSupply",
      "outputs": [
        {
          "internalType": "uint256",
          "name": "",
          "type": "uint256"
        }
      ],
      "stateMutability": "view",
      "type": "function"
    },
    {
      "inputs": [
        {
          "internalType": "address",
          "name": "account",
          "type": "address"
        },
        {
          "internalType": "uint256",
          "name": "blockNumber",
          "type": "uint256"
        }
      ],
      "name": "getPastVotes",
      "outputs": [
        {
          "internalType": "uint256",
          "name": "",
          "type": "uint256"
        }
      ],
      "stateMutability": "view",
      "type": "function"
    },
    {
      "inputs": [
        {
          "internalType": "uint8",
          "name": "round",
          "type": "uint8"
        }
      ],
      "name": "getPoolData",
      "outputs": [
        {
          "internalType": "uint256",
          "name": "rewardPerSecond",
          "type": "uint256"
        },
        {
          "internalType": "uint256",
          "name": "rewardIndex",
          "type": "uint256"
        },
        {
          "internalType": "uint256",
          "name": "startTimestamp",
          "type": "uint256"
        },
        {
          "internalType": "uint256",
          "name": "endTimestamp",
          "type": "uint256"
        },
        {
          "internalType": "uint256",
          "name": "totalPrincipal",
          "type": "uint256"
        },
        {
          "internalType": "uint256",
          "name": "lastUpdateTimestamp",
          "type": "uint256"
        }
      ],
      "stateMutability": "view",
      "type": "function"
    },
    {
      "inputs": [
        {
          "internalType": "uint8",
          "name": "round",
          "type": "uint8"
        }
      ],
      "name": "getRewardIndex",
      "outputs": [
        {
          "internalType": "uint256",
          "name": "",
          "type": "uint256"
        }
      ],
      "stateMutability": "view",
      "type": "function"
    },
    {
      "inputs": [
        {
          "internalType": "uint8",
          "name": "round",
          "type": "uint8"
        },
        {
          "internalType": "address",
          "name": "user",
          "type": "address"
        }
      ],
      "name": "getUserData",
      "outputs": [
        {
          "internalType": "uint256",
          "name": "userIndex",
          "type": "uint256"
        },
        {
          "internalType": "uint256",
          "name": "userReward",
          "type": "uint256"
        },
        {
          "internalType": "uint256",
          "name": "userPrincipal",
          "type": "uint256"
        }
      ],
      "stateMutability": "view",
      "type": "function"
    },
    {
      "inputs": [
        {
          "internalType": "address",
          "name": "user",
          "type": "address"
        },
        {
          "internalType": "uint8",
          "name": "round",
          "type": "uint8"
        }
      ],
      "name": "getUserReward",
      "outputs": [
        {
          "internalType": "uint256",
          "name": "",
          "type": "uint256"
        }
      ],
      "stateMutability": "view",
      "type": "function"
    },
    {
      "inputs": [
        {
          "internalType": "address",
          "name": "account",
          "type": "address"
        }
      ],
      "name": "getVotes",
      "outputs": [
        {
          "internalType": "uint256",
          "name": "",
          "type": "uint256"
        }
      ],
      "stateMutability": "view",
      "type": "function"
    },
    {
      "inputs": [
        {
          "internalType": "address",
          "name": "spender",
          "type": "address"
        },
        {
          "internalType": "uint256",
          "name": "addedValue",
          "type": "uint256"
        }
      ],
      "name": "increaseAllowance",
      "outputs": [
        {
          "internalType": "bool",
          "name": "",
          "type": "bool"
        }
      ],
      "stateMutability": "nonpayable",
      "type": "function"
    },
    {
      "inputs": [
        {
          "internalType": "uint256",
          "name": "rewardPerSecond",
          "type": "uint256"
        },
        {
          "internalType": "uint16",
          "name": "year",
          "type": "uint16"
        },
        {
          "internalType": "uint8",
          "name": "month",
          "type": "uint8"
        },
        {
          "internalType": "uint8",
          "name": "day",
          "type": "uint8"
        },
        {
          "internalType": "uint8",
          "name": "duration",
          "type": "uint8"
        }
      ],
      "name": "initNewRound",
      "outputs": [],
      "stateMutability": "nonpayable",
      "type": "function"
    },
    {
      "inputs": [
        {
          "internalType": "uint256",
          "name": "amount",
          "type": "uint256"
        },
        {
          "internalType": "uint8",
          "name": "round",
          "type": "uint8"
        }
      ],
      "name": "migrate",
      "outputs": [],
      "stateMutability": "nonpayable",
      "type": "function"
    },
    {
      "inputs": [],
      "name": "name",
      "outputs": [
        {
          "internalType": "string",
          "name": "",
          "type": "string"
        }
      ],
      "stateMutability": "view",
      "type": "function"
    },
    {
      "inputs": [
        {
          "internalType": "address",
          "name": "owner",
          "type": "address"
        }
      ],
      "name": "nonces",
      "outputs": [
        {
          "internalType": "uint256",
          "name": "",
          "type": "uint256"
        }
      ],
      "stateMutability": "view",
      "type": "function"
    },
    {
      "inputs": [
        {
          "internalType": "address",
          "name": "account",
          "type": "address"
        }
      ],
      "name": "numCheckpoints",
      "outputs": [
        {
          "internalType": "uint32",
          "name": "",
          "type": "uint32"
        }
      ],
      "stateMutability": "view",
      "type": "function"
    },
    {
      "inputs": [
        {
          "internalType": "address",
          "name": "owner",
          "type": "address"
        },
        {
          "internalType": "address",
          "name": "spender",
          "type": "address"
        },
        {
          "internalType": "uint256",
          "name": "value",
          "type": "uint256"
        },
        {
          "internalType": "uint256",
          "name": "deadline",
          "type": "uint256"
        },
        {
          "internalType": "uint8",
          "name": "v",
          "type": "uint8"
        },
        {
          "internalType": "bytes32",
          "name": "r",
          "type": "bytes32"
        },
        {
          "internalType": "bytes32",
          "name": "s",
          "type": "bytes32"
        }
      ],
      "name": "permit",
      "outputs": [],
      "stateMutability": "nonpayable",
      "type": "function"
    },
    {
      "inputs": [],
      "name": "retrieveResidue",
      "outputs": [],
      "stateMutability": "nonpayable",
      "type": "function"
    },
    {
      "inputs": [],
      "name": "rewardAsset",
      "outputs": [
        {
          "internalType": "contract IERC20",
          "name": "",
          "type": "address"
        }
      ],
      "stateMutability": "view",
      "type": "function"
    },
    {
      "inputs": [
        {
          "internalType": "uint256",
          "name": "amount",
          "type": "uint256"
        }
      ],
      "name": "stake",
      "outputs": [],
      "stateMutability": "nonpayable",
      "type": "function"
    },
    {
      "inputs": [],
      "name": "stakingAsset",
      "outputs": [
        {
          "internalType": "contract IERC20",
          "name": "",
          "type": "address"
        }
      ],
      "stateMutability": "view",
      "type": "function"
    },
    {
      "inputs": [],
      "name": "symbol",
      "outputs": [
        {
          "internalType": "string",
          "name": "",
          "type": "string"
        }
      ],
      "stateMutability": "view",
      "type": "function"
    },
    {
      "inputs": [],
      "name": "totalSupply",
      "outputs": [
        {
          "internalType": "uint256",
          "name": "",
          "type": "uint256"
        }
      ],
      "stateMutability": "view",
      "type": "function"
    },
    {
      "inputs": [
        {
          "internalType": "address",
          "name": "recipient",
          "type": "address"
        },
        {
          "internalType": "uint256",
          "name": "amount",
          "type": "uint256"
        }
      ],
      "name": "transfer",
      "outputs": [
        {
          "internalType": "bool",
          "name": "",
          "type": "bool"
        }
      ],
      "stateMutability": "nonpayable",
      "type": "function"
    },
    {
      "inputs": [
        {
          "internalType": "address",
          "name": "sender",
          "type": "address"
        },
        {
          "internalType": "address",
          "name": "recipient",
          "type": "address"
        },
        {
          "internalType": "uint256",
          "name": "amount",
          "type": "uint256"
        }
      ],
      "name": "transferFrom",
      "outputs": [
        {
          "internalType": "bool",
          "name": "",
          "type": "bool"
        }
      ],
      "stateMutability": "nonpayable",
      "type": "function"
    },
    {
      "inputs": [],
      "name": "underlying",
      "outputs": [
        {
          "internalType": "contract IERC20",
          "name": "",
          "type": "address"
        }
      ],
      "stateMutability": "view",
      "type": "function"
    },
    {
      "inputs": [
        {
          "internalType": "uint256",
          "name": "amount",
          "type": "uint256"
        },
        {
          "internalType": "uint8",
          "name": "round",
          "type": "uint8"
        }
      ],
      "name": "withdraw",
      "outputs": [],
      "stateMutability": "nonpayable",
      "type": "function"
    },
    {
      "inputs": [
        {
          "internalType": "address",
          "name": "account",
          "type": "address"
        },
        {
          "internalType": "uint256",
          "name": "amount",
          "type": "uint256"
        }
      ],
      "name": "withdrawTo",
      "outputs": [
        {
          "internalType": "bool",
          "name": "",
          "type": "bool"
        }
      ],
      "stateMutability": "nonpayable",
      "type": "function"
    }
  ],
  "bytecode": "0x6101606040527f6e71edae12b1b97f4d1f60370fef10105fa2faae0126114a169c64845d6126c9610120523480156200003757600080fd5b506040516200375c3803806200375c8339810160408190526200005a91620002c8565b81806040518060400160405280601081526020016f29ba30b5b2b222b63cb334aa37b5b2b760811b81525080604051806040016040528060018152602001603160f81b8152506040518060400160405280601081526020016f29ba30b5b2b222b63cb334aa37b5b2b760811b8152506040518060400160405280600581526020016453454c464960d81b8152508160039080519060200190620000ff92919062000205565b5080516200011590600490602084019062000205565b5050825160209384012082519284019290922060c083815260e08290524660a0818152604080517f8b73c3c69bb8fe3d512ecc4cf759cc79239f7b179b0ffacaa9a75d522b39400f818a0181905281830198909852606080820196909652608080820194909452308184015281518082039093018352909301909252815191909501209093525061010090815292901b6001600160601b0319166101405250600a80546001600160a01b03199081166001600160a01b0396871617909155600b8054909116939094169290921790925560098054610100600160a81b03191633909202919091179055506200033c565b8280546200021390620002ff565b90600052602060002090601f01602090048101928262000237576000855562000282565b82601f106200025257805160ff191683800117855562000282565b8280016001018555821562000282579182015b828111156200028257825182559160200191906001019062000265565b506200029092915062000294565b5090565b5b8082111562000290576000815560010162000295565b80516001600160a01b0381168114620002c357600080fd5b919050565b60008060408385031215620002db578182fd5b620002e683620002ab565b9150620002f660208401620002ab565b90509250929050565b600181811c908216806200031457607f821691505b602082108114156200033657634e487b7160e01b600052602260045260246000fd5b50919050565b60805160a05160c05160e05161010051610120516101405160601c6133b4620003a86000396000818161048001528181610737015261081501526000611012015260006117d00152600061181f015260006117fa0152600061177e015260006117a701526133b46000f3fe608060405234801561001057600080fd5b50600436106102325760003560e01c806370a0823111610130578063a457c2d7116100b8578063c3cda5201161007c578063c3cda520146105ce578063d505accf146105e1578063dd62ed3e146105f4578063edab62f51461062d578063f1127ed81461064057600080fd5b8063a457c2d71461057a578063a694fc3a1461058d578063a9059cbb146105a0578063b711c5bc146105b3578063be04ffd9146105bb57600080fd5b80638e539e8c116100ff5780638e539e8c14610526578063903d42961461053957806395d4063f1461054c57806395d89b411461055f5780639ab24eb01461056757600080fd5b806370a08231146104ca5780637776768f146104f35780637ecebe00146105065780638a19c8bc1461051957600080fd5b80633644e515116101be5780634574ecff116101825780634574ecff14610429578063587cde1e1461043c5780635c19a95c146104685780636f307dc31461047b5780636fcfff45146104a257600080fd5b80633644e51514610375578063395093511461037d5780633a46b1a8146103905780633b09d3b5146103a35780634255a1c21461041457600080fd5b80631b3bd527116102055780631b3bd527146102b5578063205c28781461032757806323b872dd1461033a5780632f4f21e21461034d578063313ce5671461036057600080fd5b806306fdde0314610237578063095ea7b3146102555780630ac6702a1461027857806318160ddd146102a3575b600080fd5b61023f61067d565b60405161024c9190613183565b60405180910390f35b610268610263366004612f74565b61070f565b604051901515815260200161024c565b600b5461028b906001600160a01b031681565b6040516001600160a01b03909116815260200161024c565b6002545b60405190815260200161024c565b6102fa6102c3366004613132565b60ff166000908152600c60205260409020805460018201546002830154600384015460048501546005909501549395929491939092565b604080519687526020870195909552938501929092526060840152608083015260a082015260c00161024c565b610268610335366004612f74565b610726565b610268610348366004612ed0565b61075d565b61026861035b366004612f74565b61080e565b60125b60405160ff909116815260200161024c565b6102a7610846565b61026861038b366004612f74565b610855565b6102a761039e366004612f74565b610891565b6103f96103b136600461314c565b60ff919091166000908152600c602090815260408083206001600160a01b03909416835260068401825280832054600785018352818420546008909501909252909120549092565b6040805193845260208401929092529082015260600161024c565b6104276104223660046130ab565b610904565b005b6102a7610437366004613032565b610a21565b61028b61044a366004612e84565b6001600160a01b039081166000908152600660205260409020541690565b610427610476366004612e84565b610a45565b61028b7f000000000000000000000000000000000000000000000000000000000000000081565b6104b56104b0366004612e84565b610a52565b60405163ffffffff909116815260200161024c565b6102a76104d8366004612e84565b6001600160a01b031660009081526020819052604090205490565b600a5461028b906001600160a01b031681565b6102a7610514366004612e84565b610a74565b6009546103639060ff1681565b6102a761053436600461307b565b610a92565b610427610547366004613110565b610aee565b61042761055a366004613132565b610afc565b61023f610b06565b6102a7610575366004612e84565b610b15565b610268610588366004612f74565b610baa565b61042761059b36600461307b565b610c43565b6102686105ae366004612f74565b610d92565b610427610d9f565b6102a76105c9366004613132565b610e6d565b6104276105dc366004612f9d565b610e88565b6104276105ef366004612f0b565b610fbe565b6102a7610602366004612e9e565b6001600160a01b03918216600090815260016020908152604080832093909416825291909152205490565b61042761063b366004613110565b611122565b61065361064e366004612ff4565b611336565b60408051825163ffffffff1681526020928301516001600160e01b0316928101929092520161024c565b60606003805461068c906132da565b80601f01602080910402602001604051908101604052809291908181526020018280546106b8906132da565b80156107055780601f106106da57610100808354040283529160200191610705565b820191906000526020600020905b8154815290600101906020018083116106e857829003601f168201915b5050505050905090565b600061071c3384846113c8565b5060015b92915050565b600061073233836114ec565b61071c7f000000000000000000000000000000000000000000000000000000000000000084846114f6565b600061076a84848461155e565b6001600160a01b0384166000908152600160209081526040808320338452909152902054828110156107f45760405162461bcd60e51b815260206004820152602860248201527f45524332303a207472616e7366657220616d6f756e74206578636565647320616044820152676c6c6f77616e636560c01b60648201526084015b60405180910390fd5b61080185338584036113c8565b60019150505b9392505050565b600061083c7f0000000000000000000000000000000000000000000000000000000000000000333085611738565b61071c8383611770565b600061085061177a565b905090565b3360008181526001602090815260408083206001600160a01b0387168452909152812054909161071c91859061088c9086906131b6565b6113c8565b60004382106108e25760405162461bcd60e51b815260206004820152601f60248201527f4552433230566f7465733a20626c6f636b206e6f7420796574206d696e65640060448201526064016107eb565b6001600160a01b0383166000908152600760205260409020610807908361186d565b60095461010090046001600160a01b0316331461093457604051634755657960e01b815260040160405180910390fd5b60095460ff166000908152600c6020526040812090610956868686600a611946565b9050816003015481101561097d5760405163d2b3b7e960e01b815260040160405180910390fd5b6009546000906109919060ff1660016131ce565b60ff81166000908152600c602052604081209192509081906109b5908b8689611960565b6009805460ff191660ff8716908117909155604080518e815260208101859052908101839052606081019190915291935091507f332ab8cb2abb1a5c0619be13c533c05a84279ef1d2d78814f594f39df59122419060800160405180910390a150505050505050505050565b60ff81166000908152600c60205260408120610a3d81856119bb565b949350505050565b610a4f3382611a76565b50565b6001600160a01b03811660009081526007602052604081205461072090611aef565b6001600160a01b038116600090815260056020526040812054610720565b6000438210610ae35760405162461bcd60e51b815260206004820152601f60248201527f4552433230566f7465733a20626c6f636b206e6f7420796574206d696e65640060448201526064016107eb565b61072060088361186d565b610af88282611b58565b5050565b610a4f3382611cd3565b60606004805461068c906132da565b6001600160a01b0381166000908152600760205260408120548015610b97576001600160a01b0383166000908152600760205260409020610b57600183613274565b81548110610b7557634e487b7160e01b600052603260045260246000fd5b60009182526020909120015464010000000090046001600160e01b0316610b9a565b60005b6001600160e01b03169392505050565b3360009081526001602090815260408083206001600160a01b038616845290915281205482811015610c2c5760405162461bcd60e51b815260206004820152602560248201527f45524332303a2064656372656173656420616c6c6f77616e63652062656c6f77604482015264207a65726f60d81b60648201526084016107eb565b610c3933858584036113c8565b5060019392505050565b60095460ff166000818152600c6020526040902090610c75576040516350f7da1560e11b815260040160405180910390fd5b4281600301541080610c8a5750428160020154115b15610ca857604051636a67d54960e01b815260040160405180910390fd5b81610cc6576040516315ad0dc760e21b815260040160405180910390fd5b600954610cd890829060ff1633611e75565b610ce2338361080e565b5033600090815260088201602052604081208054849290610d049084906131b6565b9250508190555081816004016000828254610d1f91906131b6565b909155505033600081815260068301602090815260408083205460088601835292819020546009548251888152938401949094529082015260ff90911660608201527f9a2358088aa909a8c4d7b59a65c916782d62ee73d14b851be57582ed69e3ccb09060800160405180910390a25050565b600061071c33848461155e565b60095461010090046001600160a01b03163314610dcf57604051634755657960e01b815260040160405180910390fd5b600954600b546040516370a0823160e01b8152306004820152610e6b9261010090046001600160a01b039081169216906370a082319060240160206040518083038186803b158015610e2057600080fd5b505afa158015610e34573d6000803e3d6000fd5b505050506040513d601f19601f82011682018060405250810190610e589190613093565b600b546001600160a01b031691906114f6565b565b60ff81166000908152600c6020526040812061080781611f36565b83421115610ed85760405162461bcd60e51b815260206004820152601d60248201527f4552433230566f7465733a207369676e6174757265206578706972656400000060448201526064016107eb565b604080517fe48329057bfd03d55e49b547132e39cffd9c1820ad7b9d4c5307691425d15adf60208201526001600160a01b038816918101919091526060810186905260808101859052600090610f5290610f4a9060a00160405160208183030381529060405280519060200120611fc7565b858585612015565b9050610f5d8161203d565b8614610fab5760405162461bcd60e51b815260206004820152601960248201527f4552433230566f7465733a20696e76616c6964206e6f6e63650000000000000060448201526064016107eb565b610fb58188611a76565b50505050505050565b8342111561100e5760405162461bcd60e51b815260206004820152601d60248201527f45524332305065726d69743a206578706972656420646561646c696e6500000060448201526064016107eb565b60007f000000000000000000000000000000000000000000000000000000000000000088888861103d8c61203d565b6040805160208101969096526001600160a01b0394851690860152929091166060840152608083015260a082015260c0810186905260e001604051602081830303815290604052805190602001209050600061109882611fc7565b905060006110a882878787612015565b9050896001600160a01b0316816001600160a01b03161461110b5760405162461bcd60e51b815260206004820152601e60248201527f45524332305065726d69743a20696e76616c6964207369676e6174757265000060448201526064016107eb565b6111168a8a8a6113c8565b50505050505050505050565b60095460ff9081169082161061115c576009546040516365d621ed60e01b815260ff808416600483015290911660248201526044016107eb565b60ff81166000908152600c6020908152604080832033845260088101909252909120548061119d57604051630b3eb09f60e21b815260040160405180910390fd5b60006111a98583613274565b90506111b583336119bb565b156111c4576111c43385611cd3565b80156111d4576111d48185611b58565b60095460ff166000818152600c60205260409020906111f590829033611e75565b33600090815260088501602052604081208054889290611216908490613274565b90915550503360009081526008820160205260408120805488929061123c9084906131b6565b92505081905550858460040160008282546112579190613274565b925050819055508581600401600082825461127291906131b6565b9091555050336000818152600683016020908152604080832054600886018352928190205460095482518c8152938401949094529082015260ff90911660608201527f9a2358088aa909a8c4d7b59a65c916782d62ee73d14b851be57582ed69e3ccb09060800160405180910390a2600954604080513381526020810189905260ff888116828401529092166060830152517f546af5173ec580ce2f8eb21d6efbe16430d69c880c6d83a5f455b9f4022843ad9181900360800190a1505050505050565b60408051808201909152600080825260208201526001600160a01b0383166000908152600760205260409020805463ffffffff841690811061138857634e487b7160e01b600052603260045260246000fd5b60009182526020918290206040805180820190915291015463ffffffff8116825264010000000090046001600160e01b0316918101919091529392505050565b6001600160a01b03831661142a5760405162461bcd60e51b8152602060048201526024808201527f45524332303a20617070726f76652066726f6d20746865207a65726f206164646044820152637265737360e01b60648201526084016107eb565b6001600160a01b03821661148b5760405162461bcd60e51b815260206004820152602260248201527f45524332303a20617070726f766520746f20746865207a65726f206164647265604482015261737360f01b60648201526084016107eb565b6001600160a01b0383811660008181526001602090815260408083209487168084529482529182902085905590518481527f8c5be1e5ebec7d5bd14f71427d1e84f3dd0314c0f7b2291e5b200ac8c7c3b925910160405180910390a3505050565b610af88282612065565b6040516001600160a01b03831660248201526044810182905261155990849063a9059cbb60e01b906064015b60408051601f198184030181529190526020810180516001600160e01b03166001600160e01b03199093169290921790915261207d565b505050565b6001600160a01b0383166115c25760405162461bcd60e51b815260206004820152602560248201527f45524332303a207472616e736665722066726f6d20746865207a65726f206164604482015264647265737360d81b60648201526084016107eb565b6001600160a01b0382166116245760405162461bcd60e51b815260206004820152602360248201527f45524332303a207472616e7366657220746f20746865207a65726f206164647260448201526265737360e81b60648201526084016107eb565b6001600160a01b0383166000908152602081905260409020548181101561169c5760405162461bcd60e51b815260206004820152602660248201527f45524332303a207472616e7366657220616d6f756e7420657863656564732062604482015265616c616e636560d01b60648201526084016107eb565b6001600160a01b038085166000908152602081905260408082208585039055918516815290812080548492906116d39084906131b6565b92505081905550826001600160a01b0316846001600160a01b03167fddf252ad1be2c89b69c2b068fc378daa952ba7f163c4a11628f55a4df523b3ef8460405161171f91815260200190565b60405180910390a361173284848461214f565b50505050565b6040516001600160a01b03808516602483015283166044820152606481018290526117329085906323b872dd60e01b90608401611522565b610af8828261215a565b60007f00000000000000000000000000000000000000000000000000000000000000004614156117c957507f000000000000000000000000000000000000000000000000000000000000000090565b50604080517f00000000000000000000000000000000000000000000000000000000000000006020808301919091527f0000000000000000000000000000000000000000000000000000000000000000828401527f000000000000000000000000000000000000000000000000000000000000000060608301524660808301523060a0808401919091528351808403909101815260c0909201909252805191012090565b8154600090815b818110156118df57600061188882846121e4565b9050848682815481106118ab57634e487b7160e01b600052603260045260246000fd5b60009182526020909120015463ffffffff1611156118cb578092506118d9565b6118d68160016131b6565b91505b50611874565b811561193157846118f1600184613274565b8154811061190f57634e487b7160e01b600052603260045260246000fd5b60009182526020909120015464010000000090046001600160e01b0316611934565b60005b6001600160e01b031695945050505050565b6000611957858585856000806121ff565b95945050505050565b8284556002840182905560008061197d60ff841662015180613207565b61198c9062ffffff16856131b6565b6003870181905560058701859055670de0b6b3a764000060018801556002870154925090505b94509492505050565b6001600160a01b03811660009081526006830160205260408120546119e257506000610720565b6001600160a01b0382166000908152600684016020526040812054611a0685611f36565b611a109190613274565b6001600160a01b0384166000908152600886016020526040812054919250633b9aca00611a3d8484613232565b611a4791906131f3565b6001600160a01b0386166000908152600788016020526040902054611a6c91906131b6565b9695505050505050565b6001600160a01b038281166000818152600660208181526040808420805485845282862054949093528787166001600160a01b03198416811790915590519190951694919391928592917f3134e8a2e6d97e929a7e54011ea5485d7d196dd5f0ba4d4ef95803e8e3fc257f9190a46117328284836123be565b600063ffffffff821115611b545760405162461bcd60e51b815260206004820152602660248201527f53616665436173743a2076616c756520646f65736e27742066697420696e203360448201526532206269747360d01b60648201526084016107eb565b5090565b60ff8082166000818152600c602052604090206009549092859291161015611ba4576009546040516365d621ed60e01b815260ff808616600483015290911660248201526044016107eb565b600019841415611bc257503360009081526008820160205260409020545b336000908152600883016020526040902054811115611c0b573360009081526008830160205260409081902054905163cebd519360e01b815260048101919091526024016107eb565b611c16828433611e75565b33600090815260088301602052604081208054839290611c37908490613274565b9250508190555080826004016000828254611c529190613274565b90915550611c6290503385610726565b5033600081815260068401602090815260408083205460088701835292819020546009548251878152938401949094529082015260ff90911660608201527f66ecb22c263001ecfe4aecc5a075cfbc877869d3fab02728b0f8bfb8b08bf6d19060800160405180910390a250505050565b60095460ff9081169082161115611d0e576009546040516365d621ed60e01b815260ff808416600483015290911660248201526044016107eb565b60ff81166000908152600c6020526040812090611d2b82856119bb565b905080611d4b57604051632706c9e160e21b815260040160405180910390fd5b6001600160a01b0384166000908152600783016020526040812055611d6f82611f36565b6001600160a01b038086166000908152600685016020526040902091909155600b54611d9d911685836114f6565b600b546040516370a0823160e01b81523060048201526000916001600160a01b0316906370a082319060240160206040518083038186803b158015611de157600080fd5b505afa158015611df5573d6000803e3d6000fd5b505050506040513d601f19601f82011682018060405250810190611e199190613093565b604080518481526020810183905260ff8716918101919091529091506001600160a01b038616907fae4ef7abdb28a08e41e77990def7c7d8d3f4133e8838005bc1a49fe137dbfcfa906060015b60405180910390a25050505050565b611e7f83826119bb565b6001600160a01b0382166000908152600785016020526040902055611ea383611f36565b6001600160a01b03821660009081526006850160205260409020819055600184015560038301544210611eda578260030154611edc565b425b60058401556001830154600484015460408051928352602083019190915260ff84169082015233907f7994e9f3b8680cde12b3d4f603192419ae0154049b1c5cc3157262c90ab4f9239060600160405180910390a2505050565b60008082600301544210611f4e578260030154611f50565b425b90506000836005015482611f649190613274565b600485015490915081611f7c57505050506001015490565b80611f8c57505050506001015490565b84546000908290611f9d9085613232565b611fab90633b9aca00613232565b611fb591906131f3565b9050808660010154611a6c91906131b6565b6000610720611fd461177a565b8360405161190160f01b6020820152602281018390526042810182905260009060620160405160208183030381529060405280519060200120905092915050565b6000806000612026878787876124ec565b91509150612033816125d6565b5095945050505050565b6001600160a01b03811660009081526005602052604090208054600181018255905b50919050565b61206f82826127d7565b611732600861292c83612938565b60006120d2826040518060400160405280602081526020017f5361666545524332303a206c6f772d6c6576656c2063616c6c206661696c6564815250856001600160a01b0316612adb9092919063ffffffff16565b80519091501561155957808060200190518101906120f0919061305b565b6115595760405162461bcd60e51b815260206004820152602a60248201527f5361666545524332303a204552433230206f7065726174696f6e20646964206e6044820152691bdd081cdd58d8d9595960b21b60648201526084016107eb565b611559838383612aea565b6121648282612b1c565b6002546001600160e01b0310156121d65760405162461bcd60e51b815260206004820152603060248201527f4552433230566f7465733a20746f74616c20737570706c79207269736b73206f60448201526f766572666c6f77696e6720766f74657360801b60648201526084016107eb565b6117326008612c0383612938565b60006121f360028484186131f3565b610807908484166131b6565b60006107b25b8761ffff168161ffff16101561225b5761221e81612c0f565b15612238576122316301e28500836131b6565b9150612249565b6122466301e13380836131b6565b91505b806122538161330f565b915050612205565b612263612e38565b601f815261227089612c0f565b1561228157601d6020820152612289565b601c60208201525b601f60408201819052601e606083018190526080830182905260a0830181905260c0830182905260e0830182905261010083018190526101208301829052610140830152610160820152600191505b8760ff168261ffff16101561234857806122f3600184613251565b61ffff16600c811061231557634e487b7160e01b600052603260045260246000fd5b602002015161232a9060ff1662015180613232565b61233490846131b6565b9250816123408161330f565b9250506122d8565b61235360018861328b565b6123639060ff1662015180613232565b61236d90846131b6565b925061237e60ff8716610e10613232565b61238890846131b6565b925061239860ff8616603c613232565b6123a290846131b6565b92506123b160ff8516846131b6565b9998505050505050505050565b816001600160a01b0316836001600160a01b0316141580156123e05750600081115b15611559576001600160a01b0383161561246e576001600160a01b0383166000908152600760205260408120819061241b9061292c85612938565b91509150846001600160a01b03167fdec2bacdd2f05b59de34da9b523dff8be42e5e38e818c82fdb0bae774387a7248383604051612463929190918252602082015260400190565b60405180910390a250505b6001600160a01b03821615611559576001600160a01b038216600090815260076020526040812081906124a490612c0385612938565b91509150836001600160a01b03167fdec2bacdd2f05b59de34da9b523dff8be42e5e38e818c82fdb0bae774387a7248383604051611e66929190918252602082015260400190565b6000807f7fffffffffffffffffffffffffffffff5d576e7357a4501ddfe92f46681b20a083111561252357506000905060036119b2565b8460ff16601b1415801561253b57508460ff16601c14155b1561254c57506000905060046119b2565b6040805160008082526020820180845289905260ff881692820192909252606081018690526080810185905260019060a0016020604051602081039080840390855afa1580156125a0573d6000803e3d6000fd5b5050604051601f1901519150506001600160a01b0381166125c9576000600192509250506119b2565b9660009650945050505050565b60008160048111156125f857634e487b7160e01b600052602160045260246000fd5b14156126015750565b600181600481111561262357634e487b7160e01b600052602160045260246000fd5b14156126715760405162461bcd60e51b815260206004820152601860248201527f45434453413a20696e76616c6964207369676e6174757265000000000000000060448201526064016107eb565b600281600481111561269357634e487b7160e01b600052602160045260246000fd5b14156126e15760405162461bcd60e51b815260206004820152601f60248201527f45434453413a20696e76616c6964207369676e6174757265206c656e6774680060448201526064016107eb565b600381600481111561270357634e487b7160e01b600052602160045260246000fd5b141561275c5760405162461bcd60e51b815260206004820152602260248201527f45434453413a20696e76616c6964207369676e6174757265202773272076616c604482015261756560f01b60648201526084016107eb565b600481600481111561277e57634e487b7160e01b600052602160045260246000fd5b1415610a4f5760405162461bcd60e51b815260206004820152602260248201527f45434453413a20696e76616c6964207369676e6174757265202776272076616c604482015261756560f01b60648201526084016107eb565b6001600160a01b0382166128375760405162461bcd60e51b815260206004820152602160248201527f45524332303a206275726e2066726f6d20746865207a65726f206164647265736044820152607360f81b60648201526084016107eb565b6001600160a01b038216600090815260208190526040902054818110156128ab5760405162461bcd60e51b815260206004820152602260248201527f45524332303a206275726e20616d6f756e7420657863656564732062616c616e604482015261636560f01b60648201526084016107eb565b6001600160a01b03831660009081526020819052604081208383039055600280548492906128da908490613274565b90915550506040518281526000906001600160a01b038516907fddf252ad1be2c89b69c2b068fc378daa952ba7f163c4a11628f55a4df523b3ef9060200160405180910390a36115598360008461214f565b60006108078284613274565b8254600090819080156129915785612951600183613274565b8154811061296f57634e487b7160e01b600052603260045260246000fd5b60009182526020909120015464010000000090046001600160e01b0316612994565b60005b6001600160e01b031692506129ad83858763ffffffff16565b91506000811180156129f9575043866129c7600184613274565b815481106129e557634e487b7160e01b600052603260045260246000fd5b60009182526020909120015463ffffffff16145b15612a6757612a0782612c6e565b86612a13600184613274565b81548110612a3157634e487b7160e01b600052603260045260246000fd5b9060005260206000200160000160046101000a8154816001600160e01b0302191690836001600160e01b03160217905550612ad2565b856040518060400160405280612a7c43611aef565b63ffffffff168152602001612a9085612c6e565b6001600160e01b0390811690915282546001810184556000938452602093849020835194909301519091166401000000000263ffffffff909316929092179101555b50935093915050565b6060610a3d8484600085612cd7565b6001600160a01b03838116600090815260066020526040808220548584168352912054611559929182169116836123be565b6001600160a01b038216612b725760405162461bcd60e51b815260206004820152601f60248201527f45524332303a206d696e7420746f20746865207a65726f20616464726573730060448201526064016107eb565b8060026000828254612b8491906131b6565b90915550506001600160a01b03821660009081526020819052604081208054839290612bb19084906131b6565b90915550506040518181526001600160a01b038316906000907fddf252ad1be2c89b69c2b068fc378daa952ba7f163c4a11628f55a4df523b3ef9060200160405180910390a3610af86000838361214f565b600061080782846131b6565b6000612c1c600483613331565b61ffff1615612c2d57506000919050565b612c38606483613331565b61ffff1615612c4957506001919050565b612c5561019083613331565b61ffff1615612c6657506000919050565b506001919050565b60006001600160e01b03821115611b545760405162461bcd60e51b815260206004820152602760248201527f53616665436173743a2076616c756520646f65736e27742066697420696e20326044820152663234206269747360c81b60648201526084016107eb565b606082471015612d385760405162461bcd60e51b815260206004820152602660248201527f416464726573733a20696e73756666696369656e742062616c616e636520666f6044820152651c8818d85b1b60d21b60648201526084016107eb565b843b612d865760405162461bcd60e51b815260206004820152601d60248201527f416464726573733a2063616c6c20746f206e6f6e2d636f6e747261637400000060448201526064016107eb565b600080866001600160a01b03168587604051612da29190613167565b60006040518083038185875af1925050503d8060008114612ddf576040519150601f19603f3d011682016040523d82523d6000602084013e612de4565b606091505b5091509150612df4828286612dff565b979650505050505050565b60608315612e0e575081610807565b825115612e1e5782518084602001fd5b8160405162461bcd60e51b81526004016107eb9190613183565b604051806101800160405280600c906020820280368337509192915050565b80356001600160a01b0381168114612e6e57600080fd5b919050565b803560ff81168114612e6e57600080fd5b600060208284031215612e95578081fd5b61080782612e57565b60008060408385031215612eb0578081fd5b612eb983612e57565b9150612ec760208401612e57565b90509250929050565b600080600060608486031215612ee4578081fd5b612eed84612e57565b9250612efb60208501612e57565b9150604084013590509250925092565b600080600080600080600060e0888a031215612f25578283fd5b612f2e88612e57565b9650612f3c60208901612e57565b95506040880135945060608801359350612f5860808901612e73565b925060a0880135915060c0880135905092959891949750929550565b60008060408385031215612f86578182fd5b612f8f83612e57565b946020939093013593505050565b60008060008060008060c08789031215612fb5578182fd5b612fbe87612e57565b95506020870135945060408701359350612fda60608801612e73565b92506080870135915060a087013590509295509295509295565b60008060408385031215613006578182fd5b61300f83612e57565b9150602083013563ffffffff81168114613027578182fd5b809150509250929050565b60008060408385031215613044578182fd5b61304d83612e57565b9150612ec760208401612e73565b60006020828403121561306c578081fd5b81518015158114610807578182fd5b60006020828403121561308c578081fd5b5035919050565b6000602082840312156130a4578081fd5b5051919050565b600080600080600060a086880312156130c2578081fd5b85359450602086013561ffff811681146130da578182fd5b93506130e860408701612e73565b92506130f660608701612e73565b915061310460808701612e73565b90509295509295909350565b60008060408385031215613122578182fd5b82359150612ec760208401612e73565b600060208284031215613143578081fd5b61080782612e73565b6000806040838503121561315e578182fd5b612eb983612e73565b600082516131798184602087016132ae565b9190910192915050565b60208152600082518060208401526131a28160408501602087016132ae565b601f01601f19169190910160400192915050565b600082198211156131c9576131c9613352565b500190565b600060ff821660ff84168060ff038211156131eb576131eb613352565b019392505050565b60008261320257613202613368565b500490565b600062ffffff8083168185168183048111821515161561322957613229613352565b02949350505050565b600081600019048311821515161561324c5761324c613352565b500290565b600061ffff8381169083168181101561326c5761326c613352565b039392505050565b60008282101561328657613286613352565b500390565b600060ff821660ff8416808210156132a5576132a5613352565b90039392505050565b60005b838110156132c95781810151838201526020016132b1565b838111156117325750506000910152565b600181811c908216806132ee57607f821691505b6020821081141561205f57634e487b7160e01b600052602260045260246000fd5b600061ffff8083168181141561332757613327613352565b6001019392505050565b600061ffff8084168061334657613346613368565b92169190910692915050565b634e487b7160e01b600052601160045260246000fd5b634e487b7160e01b600052601260045260246000fdfea2646970667358221220500c320d3ffa19a404bb22959eb88127d19a6df062afbc9bec9de8e68fcac82a64736f6c63430008040033",
  "linkReferences": {},
  "deployedLinkReferences": {}
}